{"abi":[{"type":"constructor","inputs":[],"stateMutability":"nonpayable"},{"type":"function","name":"campaigns","inputs":[{"name":"","type":"uint256","internalType":"uint256"}],"outputs":[{"name":"campaignAddress","type":"address","internalType":"address"},{"name":"owner","type":"address","internalType":"address"},{"name":"name","type":"string","internalType":"string"},{"name":"creationTime","type":"uint256","internalType":"uint256"}],"stateMutability":"view"},{"type":"function","name":"createCampaign","inputs":[{"name":"_name","type":"string","internalType":"string"},{"name":"_description","type":"string","internalType":"string"},{"name":"_goal","type":"uint256","internalType":"uint256"},{"name":"_durationInDays","type":"uint256","internalType":"uint256"}],"outputs":[],"stateMutability":"nonpayable"},{"type":"function","name":"getAllCampaigns","inputs":[],"outputs":[{"name":"","type":"tuple[]","internalType":"struct CrowdfundingFactory.Campaign[]","components":[{"name":"campaignAddress","type":"address","internalType":"address"},{"name":"owner","type":"address","internalType":"address"},{"name":"name","type":"string","internalType":"string"},{"name":"creationTime","type":"uint256","internalType":"uint256"}]}],"stateMutability":"view"},{"type":"function","name":"getUserCampaigns","inputs":[{"name":"_user","type":"address","internalType":"address"}],"outputs":[{"name":"","type":"tuple[]","internalType":"struct CrowdfundingFactory.Campaign[]","components":[{"name":"campaignAddress","type":"address","internalType":"address"},{"name":"owner","type":"address","internalType":"address"},{"name":"name","type":"string","internalType":"string"},{"name":"creationTime","type":"uint256","internalType":"uint256"}]}],"stateMutability":"view"},{"type":"function","name":"owner","inputs":[],"outputs":[{"name":"","type":"address","internalType":"address"}],"stateMutability":"view"},{"type":"function","name":"paused","inputs":[],"outputs":[{"name":"","type":"bool","internalType":"bool"}],"stateMutability":"view"},{"type":"function","name":"togglePause","inputs":[],"outputs":[],"stateMutability":"nonpayable"},{"type":"function","name":"userCampaigns","inputs":[{"name":"","type":"address","internalType":"address"},{"name":"","type":"uint256","internalType":"uint256"}],"outputs":[{"name":"campaignAddress","type":"address","internalType":"address"},{"name":"owner","type":"address","internalType":"address"},{"name":"name","type":"string","internalType":"string"},{"name":"creationTime","type":"uint256","internalType":"uint256"}],"stateMutability":"view"}],"bytecode":{"object":"0x6080604052348015600f57600080fd5b50600080546001600160a01b031916331790556123b5806100316000396000f3fe608060405234801561001057600080fd5b50600436106100885760003560e01c80638da5cb5b1161005b5780638da5cb5b14610105578063a1e5084c14610130578063a318f26914610143578063c4ae31681461015857600080fd5b8063141961bc1461008d57806319ac74bd146100b95780635c975abb146100cc57806386cdf604146100f0575b600080fd5b6100a061009b366004610755565b610160565b6040516100b094939291906107b4565b60405180910390f35b6100a06100c736600461080d565b610232565b6000546100e090600160a01b900460ff1681565b60405190151581526020016100b0565b6100f8610287565b6040516100b09190610837565b600054610118906001600160a01b031681565b6040516001600160a01b0390911681526020016100b0565b6100f861013e3660046108d8565b6103a5565b61015661015136600461099f565b6104d9565b005b6101566106e0565b6001818154811061017057600080fd5b60009182526020909120600490910201805460018201546002830180546001600160a01b0393841695509290911692916101a990610a18565b80601f01602080910402602001604051908101604052809291908181526020018280546101d590610a18565b80156102225780601f106101f757610100808354040283529160200191610222565b820191906000526020600020905b81548152906001019060200180831161020557829003601f168201915b5050505050908060030154905084565b6002602052816000526040600020818154811061024e57600080fd5b60009182526020909120600490910201805460018201546002830180546001600160a01b0393841696509190921693506101a990610a18565b60606001805480602002602001604051908101604052809291908181526020016000905b8282101561039c576000848152602090819020604080516080810182526004860290920180546001600160a01b039081168452600182015416938301939093526002830180549293929184019161030190610a18565b80601f016020809104026020016040519081016040528092919081815260200182805461032d90610a18565b801561037a5780601f1061034f5761010080835404028352916020019161037a565b820191906000526020600020905b81548152906001019060200180831161035d57829003601f168201915b50505050508152602001600382015481525050815260200190600101906102ab565b50505050905090565b6001600160a01b0381166000908152600260209081526040808320805482518185028101850190935280835260609492939192909184015b828210156104ce576000848152602090819020604080516080810182526004860290920180546001600160a01b039081168452600182015416938301939093526002830180549293929184019161043390610a18565b80601f016020809104026020016040519081016040528092919081815260200182805461045f90610a18565b80156104ac5780601f10610481576101008083540402835291602001916104ac565b820191906000526020600020905b81548152906001019060200180831161048f57829003601f168201915b50505050508152602001600382015481525050815260200190600101906103dd565b505050509050919050565b600054600160a01b900460ff161561052c5760405162461bcd60e51b8152602060048201526011602482015270119858dd1bdc9e481a5cc81c185d5cd959607a1b60448201526064015b60405180910390fd5b6000338585858560405161053f90610748565b61054d959493929190610a52565b604051809103906000f080158015610569573d6000803e3d6000fd5b50604080516080810182526001600160a01b0380841682523360208301908152928201898152426060840152600180548082018255600091909152835160049091027fb10e2d527612073b26eecdfd717e6a320cf44b4afac2b0732d9fcbe2b7fa0cf6810180549285166001600160a01b031993841617815595517fb10e2d527612073b26eecdfd717e6a320cf44b4afac2b0732d9fcbe2b7fa0cf782018054919095169216919091179092555193945084939192839290917fb10e2d527612073b26eecdfd717e6a320cf44b4afac2b0732d9fcbe2b7fa0cf8019061064f9082610aec565b506060919091015160039091015533600090815260026020818152604080842080546001808201835591865294839020865160049096020180546001600160a01b03199081166001600160a01b0397881617825593870151918101805490941691909516179091558301518392918201906106ca9082610aec565b5060608201518160030155505050505050505050565b6000546001600160a01b031633146107275760405162461bcd60e51b815260206004820152600a6024820152692737ba1037bbb732b91760b11b6044820152606401610523565b6000805460ff60a01b198116600160a01b9182900460ff1615909102179055565b6117d480610bac83390190565b60006020828403121561076757600080fd5b5035919050565b6000815180845260005b8181101561079457602081850181015186830182015201610778565b506000602082860101526020601f19601f83011685010191505092915050565b6001600160a01b038581168252841660208201526080604082018190526000906107e09083018561076e565b905082606083015295945050505050565b80356001600160a01b038116811461080857600080fd5b919050565b6000806040838503121561082057600080fd5b610829836107f1565b946020939093013593505050565b6000602082016020835280845180835260408501915060408160051b86010192506020860160005b828110156108cc57868503603f19018452815180516001600160a01b039081168752602080830151909116908701526040808201516080918801829052906108a99088018261076e565b60609283015197909201969096529450602093840193919091019060010161085f565b50929695505050505050565b6000602082840312156108ea57600080fd5b6108f3826107f1565b9392505050565b634e487b7160e01b600052604160045260246000fd5b600082601f83011261092157600080fd5b813567ffffffffffffffff81111561093b5761093b6108fa565b604051601f8201601f19908116603f0116810167ffffffffffffffff8111828210171561096a5761096a6108fa565b60405281815283820160200185101561098257600080fd5b816020850160208301376000918101602001919091529392505050565b600080600080608085870312156109b557600080fd5b843567ffffffffffffffff8111156109cc57600080fd5b6109d887828801610910565b945050602085013567ffffffffffffffff8111156109f557600080fd5b610a0187828801610910565b949794965050505060408301359260600135919050565b600181811c90821680610a2c57607f821691505b602082108103610a4c57634e487b7160e01b600052602260045260246000fd5b50919050565b6001600160a01b038616815260a060208201819052600090610a769083018761076e565b8281036040840152610a88818761076e565b60608401959095525050608001529392505050565b601f821115610ae757806000526020600020601f840160051c81016020851015610ac45750805b601f840160051c820191505b81811015610ae45760008155600101610ad0565b50505b505050565b815167ffffffffffffffff811115610b0657610b066108fa565b610b1a81610b148454610a18565b84610a9d565b6020601f821160018114610b4e5760008315610b365750848201515b600019600385901b1c1916600184901b178455610ae4565b600084815260208120601f198516915b82811015610b7e5787850151825560209485019460019092019101610b5e565b5084821015610b9c5786840151600019600387901b60f8161c191681555b50505050600190811b0190555056fe608060405234801561001057600080fd5b506040516117d43803806117d483398101604081905261002f9161014d565b600061003b8582610271565b5060016100488482610271565b50600282905561005b8162015180610345565b6100659042610362565b600355505060048054600161ff0160a01b0319166001600160a01b039490941693909317909255506103759050565b634e487b7160e01b600052604160045260246000fd5b600082601f8301126100bb57600080fd5b81516001600160401b038111156100d4576100d4610094565b604051601f8201601f19908116603f011681016001600160401b038111828210171561010257610102610094565b60405281815283820160200185101561011a57600080fd5b60005b828110156101395760208186018101518383018201520161011d565b506000918101602001919091529392505050565b600080600080600060a0868803121561016557600080fd5b85516001600160a01b038116811461017c57600080fd5b60208701519095506001600160401b0381111561019857600080fd5b6101a4888289016100aa565b604088015190955090506001600160401b038111156101c257600080fd5b6101ce888289016100aa565b606088015160809098015196999598509695949350505050565b600181811c908216806101fc57607f821691505b60208210810361021c57634e487b7160e01b600052602260045260246000fd5b50919050565b601f82111561026c57806000526020600020601f840160051c810160208510156102495750805b601f840160051c820191505b818110156102695760008155600101610255565b50505b505050565b81516001600160401b0381111561028a5761028a610094565b61029e8161029884546101e8565b84610222565b6020601f8211600181146102d257600083156102ba5750848201515b600019600385901b1c1916600184901b178455610269565b600084815260208120601f198516915b8281101561030257878501518255602094850194600190920191016102e2565b50848210156103205786840151600019600387901b60f8161c191681555b50505050600190811b01905550565b634e487b7160e01b600052601160045260246000fd5b808202811582820484141761035c5761035c61032f565b92915050565b8082018082111561035c5761035c61032f565b611450806103846000396000f3fe60806040526004361061011f5760003560e01c80637284e416116100a0578063b85dfb8011610064578063b85dfb8014610317578063c19d93fb14610344578063c4ae316814610365578063ca1d209d1461037a578063de1705701461038d57600080fd5b80637284e4161461026a5780637497211b1461027f5780637adba5271461029f5780638da5cb5b146102bf5780638ece7b91146102f757600080fd5b80633ccfd60b116100e75780633ccfd60b146101e657806340193883146101fb578063590e1ae3146102115780635c975abb146102265780636f9fb98a1461025757600080fd5b8063039af9eb1461012457806306fdde031461015c578063105505151461017e57806329dcb0cf146101a0578063389b7533146101c4575b600080fd5b34801561013057600080fd5b5061014461013f366004610ea8565b6103af565b60405161015393929190610f07565b60405180910390f35b34801561016857600080fd5b50610171610471565b6040516101539190610f2c565b34801561018a57600080fd5b506101936104ff565b6040516101539190610f5c565b3480156101ac57600080fd5b506101b660035481565b604051908152602001610153565b3480156101d057600080fd5b506101e46101df366004610ea8565b61055a565b005b3480156101f257600080fd5b506101e461061a565b34801561020757600080fd5b506101b660025481565b34801561021d57600080fd5b506101e461073e565b34801561023257600080fd5b5060045461024790600160a01b900460ff1681565b6040519015158152602001610153565b34801561026357600080fd5b50476101b6565b34801561027657600080fd5b50610171610844565b34801561028b57600080fd5b506101e461029a366004610ea8565b610851565b3480156102ab57600080fd5b506102476102ba366004610fa0565b610979565b3480156102cb57600080fd5b506004546102df906001600160a01b031681565b6040516001600160a01b039091168152602001610153565b34801561030357600080fd5b506101e4610312366004610fe0565b6109aa565b34801561032357600080fd5b506101b661033236600461109b565b60066020526000908152604090205481565b34801561035057600080fd5b5060045461019390600160a81b900460ff1681565b34801561037157600080fd5b506101e4610a9d565b6101e4610388366004610ea8565b610ae8565b34801561039957600080fd5b506103a2610cd7565b60405161015391906110b6565b600581815481106103bf57600080fd5b90600052602060002090600302016000915090508060000180546103e29061113b565b80601f016020809104026020016040519081016040528092919081815260200182805461040e9061113b565b801561045b5780601f106104305761010080835404028352916020019161045b565b820191906000526020600020905b81548152906001019060200180831161043e57829003601f168201915b5050505050908060010154908060020154905083565b6000805461047e9061113b565b80601f01602080910402602001604051908101604052809291908181526020018280546104aa9061113b565b80156104f75780601f106104cc576101008083540402835291602001916104f7565b820191906000526020600020905b8154815290600101906020018083116104da57829003601f168201915b505050505081565b600080600454600160a81b900460ff16600281111561052057610520610f46565b14801561052e575060035442115b15610549576002544710156105435750600290565b50600190565b50600454600160a81b900460ff1690565b6004546001600160a01b0316331461058d5760405162461bcd60e51b815260040161058490611175565b60405180910390fd5b6000600454600160a81b900460ff1660028111156105ad576105ad610f46565b146105f45760405162461bcd60e51b815260206004820152601760248201527621b0b6b830b4b3b71034b9903737ba1030b1ba34bb329760491b6044820152606401610584565b61060181620151806111b2565b6003600082825461061291906111c9565b909155505050565b6004546001600160a01b031633146106445760405162461bcd60e51b815260040161058490611175565b61064c610ddc565b6001600454600160a81b900460ff16600281111561066c5761066c610f46565b146106b95760405162461bcd60e51b815260206004820152601860248201527f43616d706169676e206e6f74207375636365737366756c2e00000000000000006044820152606401610584565b47806107005760405162461bcd60e51b81526020600482015260166024820152754e6f2062616c616e636520746f20776974686472617760501b6044820152606401610584565b6004546040516001600160a01b039091169082156108fc029083906000818181858888f1935050505015801561073a573d6000803e3d6000fd5b5050565b610746610ddc565b6002600454600160a81b900460ff16600281111561076657610766610f46565b146107ac5760405162461bcd60e51b81526020600482015260166024820152752932b33ab73239903737ba1030bb30b4b630b136329760511b6044820152606401610584565b33600090815260066020526040902054806108095760405162461bcd60e51b815260206004820152601960248201527f4e6f20636f6e747269627574696f6e20746f20726566756e64000000000000006044820152606401610584565b336000818152600660205260408082208290555183156108fc0291849190818181858888f1935050505015801561073a573d6000803e3d6000fd5b6001805461047e9061113b565b6004546001600160a01b0316331461087b5760405162461bcd60e51b815260040161058490611175565b60055481106108c35760405162461bcd60e51b81526020600482015260146024820152732a34b2b9103237b2b9903737ba1032bc34b9ba1760611b6044820152606401610584565b600580546108d3906001906111dc565b815481106108e3576108e36111ef565b906000526020600020906003020160058281548110610904576109046111ef565b600091825260209091206003909102018061091f8382611254565b5060018281015490820155600291820154910155600580548061094457610944611334565b600082815260208120600019909201916003830201906109648282610e5a565b50600060018201819055600290910155905550565b6001600160a01b038216600090815260066020908152604080832084845260010190915290205460ff165b92915050565b6004546001600160a01b031633146109d45760405162461bcd60e51b815260040161058490611175565b60008111610a245760405162461bcd60e51b815260206004820152601e60248201527f416d6f756e74206d7573742062652067726561746572207468616e20302e00006044820152606401610584565b60408051606081018252838152602081018390526000918101829052600580546001810182559252805190916003027f036b6384b5eca791c62761152d0c79bb0604c104a5fb6f4eb0703f3154bb3db001908190610a82908261134a565b50602082015181600101556040820151816002015550505050565b6004546001600160a01b03163314610ac75760405162461bcd60e51b815260040161058490611175565b6004805460ff60a01b198116600160a01b9182900460ff1615909102179055565b6000600454600160a81b900460ff166002811115610b0857610b08610f46565b14610b4f5760405162461bcd60e51b815260206004820152601760248201527621b0b6b830b4b3b71034b9903737ba1030b1ba34bb329760491b6044820152606401610584565b600454600160a01b900460ff1615610b9f5760405162461bcd60e51b815260206004820152601360248201527221b7b73a3930b1ba1034b9903830bab9b2b21760691b6044820152606401610584565b6005548110610be05760405162461bcd60e51b815260206004820152600d60248201526c24b73b30b634b2103a34b2b91760991b6044820152606401610584565b60058181548110610bf357610bf36111ef565b9060005260206000209060030201600101543414610c475760405162461bcd60e51b815260206004820152601160248201527024b731b7b93932b1ba1030b6b7bab73a1760791b6044820152606401610584565b60058181548110610c5a57610c5a6111ef565b600091825260208220600260039092020101805491610c7883611401565b90915550503360009081526006602052604081208054349290610c9c9084906111c9565b90915550503360009081526006602090815260408083208484526001908101909252909120805460ff19169091179055610cd4610ddc565b50565b60606005805480602002602001604051908101604052809291908181526020016000905b82821015610dd35783829060005260206000209060030201604051806060016040529081600082018054610d2e9061113b565b80601f0160208091040260200160405190810160405280929190818152602001828054610d5a9061113b565b8015610da75780601f10610d7c57610100808354040283529160200191610da7565b820191906000526020600020905b815481529060010190602001808311610d8a57829003601f168201915b505050505081526020016001820154815260200160028201548152505081526020019060010190610cfb565b50505050905090565b6000600454600160a81b900460ff166002811115610dfc57610dfc610f46565b03610e58576003544210610e4757600254471015610e1b576002610e1e565b60015b6004805460ff60a81b1916600160a81b836002811115610e4057610e40610f46565b0217905550565b600254471015610e1b576000610e1e565b565b508054610e669061113b565b6000825580601f10610e76575050565b601f016020900490600052602060002090810190610cd491905b80821115610ea45760008155600101610e90565b5090565b600060208284031215610eba57600080fd5b5035919050565b6000815180845260005b81811015610ee757602081850181015186830182015201610ecb565b506000602082860101526020601f19601f83011685010191505092915050565b606081526000610f1a6060830186610ec1565b60208301949094525060400152919050565b602081526000610f3f6020830184610ec1565b9392505050565b634e487b7160e01b600052602160045260246000fd5b6020810160038310610f7e57634e487b7160e01b600052602160045260246000fd5b91905290565b80356001600160a01b0381168114610f9b57600080fd5b919050565b60008060408385031215610fb357600080fd5b610fbc83610f84565b946020939093013593505050565b634e487b7160e01b600052604160045260246000fd5b60008060408385031215610ff357600080fd5b823567ffffffffffffffff81111561100a57600080fd5b8301601f8101851361101b57600080fd5b803567ffffffffffffffff81111561103557611035610fca565b604051601f8201601f19908116603f0116810167ffffffffffffffff8111828210171561106457611064610fca565b60405281815282820160200187101561107c57600080fd5b8160208401602083013760006020928201830152969401359450505050565b6000602082840312156110ad57600080fd5b610f3f82610f84565b6000602082016020835280845180835260408501915060408160051b86010192506020860160005b8281101561112f57603f1987860301845281518051606087526111046060880182610ec1565b60208381015189820152604093840151939098019290925250949384019391909101906001016110de565b50929695505050505050565b600181811c9082168061114f57607f821691505b60208210810361116f57634e487b7160e01b600052602260045260246000fd5b50919050565b6020808252600d908201526c2737ba103a34329037bbb732b960991b604082015260600190565b634e487b7160e01b600052601160045260246000fd5b80820281158282048414176109a4576109a461119c565b808201808211156109a4576109a461119c565b818103818111156109a4576109a461119c565b634e487b7160e01b600052603260045260246000fd5b601f82111561124f57806000526020600020601f840160051c8101602085101561122c5750805b601f840160051c820191505b8181101561124c5760008155600101611238565b50505b505050565b81810361125f575050565b611269825461113b565b67ffffffffffffffff81111561128157611281610fca565b6112958161128f845461113b565b84611205565b6000601f8211600181146112cc57600083156112b15750848201545b600184901b600019600386901b1c198216175b85555061124c565b600085815260209020601f19841690600086815260209020845b8381101561130657828601548255600195860195909101906020016112e6565b50858310156113245781850154600019600388901b60f8161c191681555b5050505050600190811b01905550565b634e487b7160e01b600052603160045260246000fd5b815167ffffffffffffffff81111561136457611364610fca565b6113728161128f845461113b565b6020601f8211600181146113a457600083156112b1575081850151600184901b600019600386901b1c198216176112c4565b600084815260208120601f198516915b828110156113d457878501518255602094850194600190920191016113b4565b50848210156113f25786840151600019600387901b60f8161c191681555b50505050600190811b01905550565b6000600182016114135761141361119c565b506001019056fea264697066735822122057ea0899b6da9004f0441514c9b7864170d3394e0b05dd2702a58e4bf1bbecbf64736f6c634300081a0033a2646970667358221220d15a805203fb4df8c336e2ff310884569e60658f445dd08ed5512905433e627964736f6c634300081a0033","linkReferences":{}},"methodIdentifiers":{"campaigns(uint256)":"141961bc","createCampaign(string,string,uint256,uint256)":"a318f269","getAllCampaigns()":"86cdf604","getUserCampaigns(address)":"a1e5084c","owner()":"8da5cb5b","paused()":"5c975abb","togglePause()":"c4ae3168","userCampaigns(address,uint256)":"19ac74bd"},"id":24}